{
  "_format": "hh-sol-artifact-1",
  "contractName": "NftExpress",
  "sourceName": "contracts/NftExpress.sol",
  "abi": [
    {
      "inputs": [
        {
          "internalType": "string",
          "name": "_baseTokenUri",
          "type": "string"
        }
      ],
      "stateMutability": "nonpayable",
      "type": "constructor"
    },
    {
      "inputs": [
        {
          "internalType": "address",
          "name": "sender",
          "type": "address"
        },
        {
          "internalType": "uint256",
          "name": "balance",
          "type": "uint256"
        },
        {
          "internalType": "uint256",
          "name": "needed",
          "type": "uint256"
        },
        {
          "internalType": "uint256",
          "name": "tokenId",
          "type": "uint256"
        }
      ],
      "name": "ERC1155InsufficientBalance",
      "type": "error"
    },
    {
      "inputs": [
        {
          "internalType": "address",
          "name": "approver",
          "type": "address"
        }
      ],
      "name": "ERC1155InvalidApprover",
      "type": "error"
    },
    {
      "inputs": [
        {
          "internalType": "uint256",
          "name": "idsLength",
          "type": "uint256"
        },
        {
          "internalType": "uint256",
          "name": "valuesLength",
          "type": "uint256"
        }
      ],
      "name": "ERC1155InvalidArrayLength",
      "type": "error"
    },
    {
      "inputs": [
        {
          "internalType": "address",
          "name": "operator",
          "type": "address"
        }
      ],
      "name": "ERC1155InvalidOperator",
      "type": "error"
    },
    {
      "inputs": [
        {
          "internalType": "address",
          "name": "receiver",
          "type": "address"
        }
      ],
      "name": "ERC1155InvalidReceiver",
      "type": "error"
    },
    {
      "inputs": [
        {
          "internalType": "address",
          "name": "sender",
          "type": "address"
        }
      ],
      "name": "ERC1155InvalidSender",
      "type": "error"
    },
    {
      "inputs": [
        {
          "internalType": "address",
          "name": "operator",
          "type": "address"
        },
        {
          "internalType": "address",
          "name": "owner",
          "type": "address"
        }
      ],
      "name": "ERC1155MissingApprovalForAll",
      "type": "error"
    },
    {
      "anonymous": false,
      "inputs": [
        {
          "indexed": true,
          "internalType": "address",
          "name": "account",
          "type": "address"
        },
        {
          "indexed": true,
          "internalType": "address",
          "name": "operator",
          "type": "address"
        },
        {
          "indexed": false,
          "internalType": "bool",
          "name": "approved",
          "type": "bool"
        }
      ],
      "name": "ApprovalForAll",
      "type": "event"
    },
    {
      "anonymous": false,
      "inputs": [
        {
          "indexed": true,
          "internalType": "address",
          "name": "operator",
          "type": "address"
        },
        {
          "indexed": true,
          "internalType": "address",
          "name": "from",
          "type": "address"
        },
        {
          "indexed": true,
          "internalType": "address",
          "name": "to",
          "type": "address"
        },
        {
          "indexed": false,
          "internalType": "uint256[]",
          "name": "ids",
          "type": "uint256[]"
        },
        {
          "indexed": false,
          "internalType": "uint256[]",
          "name": "values",
          "type": "uint256[]"
        }
      ],
      "name": "TransferBatch",
      "type": "event"
    },
    {
      "anonymous": false,
      "inputs": [
        {
          "indexed": true,
          "internalType": "address",
          "name": "operator",
          "type": "address"
        },
        {
          "indexed": true,
          "internalType": "address",
          "name": "from",
          "type": "address"
        },
        {
          "indexed": true,
          "internalType": "address",
          "name": "to",
          "type": "address"
        },
        {
          "indexed": false,
          "internalType": "uint256",
          "name": "id",
          "type": "uint256"
        },
        {
          "indexed": false,
          "internalType": "uint256",
          "name": "value",
          "type": "uint256"
        }
      ],
      "name": "TransferSingle",
      "type": "event"
    },
    {
      "anonymous": false,
      "inputs": [
        {
          "indexed": false,
          "internalType": "string",
          "name": "value",
          "type": "string"
        },
        {
          "indexed": true,
          "internalType": "uint256",
          "name": "id",
          "type": "uint256"
        }
      ],
      "name": "URI",
      "type": "event"
    },
    {
      "inputs": [
        {
          "internalType": "uint256",
          "name": "",
          "type": "uint256"
        }
      ],
      "name": "FTokens",
      "outputs": [
        {
          "internalType": "uint256",
          "name": "tokenId",
          "type": "uint256"
        },
        {
          "internalType": "uint256",
          "name": "timestamp",
          "type": "uint256"
        },
        {
          "internalType": "string",
          "name": "name",
          "type": "string"
        },
        {
          "internalType": "string",
          "name": "symbol",
          "type": "string"
        },
        {
          "internalType": "uint256",
          "name": "supply",
          "type": "uint256"
        },
        {
          "internalType": "uint256",
          "name": "price",
          "type": "uint256"
        },
        {
          "internalType": "uint256",
          "name": "usersOwned",
          "type": "uint256"
        },
        {
          "internalType": "uint256",
          "name": "available",
          "type": "uint256"
        }
      ],
      "stateMutability": "view",
      "type": "function"
    },
    {
      "inputs": [
        {
          "internalType": "address",
          "name": "",
          "type": "address"
        },
        {
          "internalType": "uint256",
          "name": "",
          "type": "uint256"
        }
      ],
      "name": "NFTOwnershipRecord",
      "outputs": [
        {
          "internalType": "address",
          "name": "owner",
          "type": "address"
        },
        {
          "internalType": "uint256",
          "name": "tokenId",
          "type": "uint256"
        },
        {
          "internalType": "uint256",
          "name": "timestamp",
          "type": "uint256"
        },
        {
          "internalType": "string",
          "name": "tokenUri",
          "type": "string"
        },
        {
          "internalType": "uint256",
          "name": "price",
          "type": "uint256"
        },
        {
          "internalType": "bool",
          "name": "isDeleted",
          "type": "bool"
        },
        {
          "internalType": "bool",
          "name": "sell",
          "type": "bool"
        }
      ],
      "stateMutability": "view",
      "type": "function"
    },
    {
      "inputs": [
        {
          "internalType": "uint256",
          "name": "",
          "type": "uint256"
        }
      ],
      "name": "NFTokens",
      "outputs": [
        {
          "internalType": "address",
          "name": "owner",
          "type": "address"
        },
        {
          "internalType": "uint256",
          "name": "tokenId",
          "type": "uint256"
        },
        {
          "internalType": "uint256",
          "name": "timestamp",
          "type": "uint256"
        },
        {
          "internalType": "string",
          "name": "tokenUri",
          "type": "string"
        },
        {
          "internalType": "uint256",
          "name": "price",
          "type": "uint256"
        },
        {
          "internalType": "bool",
          "name": "isDeleted",
          "type": "bool"
        },
        {
          "internalType": "bool",
          "name": "sell",
          "type": "bool"
        }
      ],
      "stateMutability": "view",
      "type": "function"
    },
    {
      "inputs": [
        {
          "internalType": "uint256",
          "name": "_sellingFTokenIndex",
          "type": "uint256"
        },
        {
          "internalType": "bool",
          "name": "isAccept",
          "type": "bool"
        }
      ],
      "name": "acceptTransaction",
      "outputs": [],
      "stateMutability": "nonpayable",
      "type": "function"
    },
    {
      "inputs": [
        {
          "internalType": "string",
          "name": "_uri",
          "type": "string"
        },
        {
          "internalType": "uint256",
          "name": "_price",
          "type": "uint256"
        }
      ],
      "name": "addNft",
      "outputs": [],
      "stateMutability": "nonpayable",
      "type": "function"
    },
    {
      "inputs": [
        {
          "internalType": "address",
          "name": "account",
          "type": "address"
        },
        {
          "internalType": "uint256",
          "name": "id",
          "type": "uint256"
        }
      ],
      "name": "balanceOf",
      "outputs": [
        {
          "internalType": "uint256",
          "name": "",
          "type": "uint256"
        }
      ],
      "stateMutability": "view",
      "type": "function"
    },
    {
      "inputs": [
        {
          "internalType": "address[]",
          "name": "accounts",
          "type": "address[]"
        },
        {
          "internalType": "uint256[]",
          "name": "ids",
          "type": "uint256[]"
        }
      ],
      "name": "balanceOfBatch",
      "outputs": [
        {
          "internalType": "uint256[]",
          "name": "",
          "type": "uint256[]"
        }
      ],
      "stateMutability": "view",
      "type": "function"
    },
    {
      "inputs": [
        {
          "internalType": "uint256",
          "name": "_nfTokenId",
          "type": "uint256"
        }
      ],
      "name": "buyNft",
      "outputs": [],
      "stateMutability": "payable",
      "type": "function"
    },
    {
      "inputs": [
        {
          "internalType": "uint256",
          "name": "_tokenId",
          "type": "uint256"
        },
        {
          "internalType": "uint256",
          "name": "_amount",
          "type": "uint256"
        }
      ],
      "name": "buyToken",
      "outputs": [],
      "stateMutability": "payable",
      "type": "function"
    },
    {
      "inputs": [
        {
          "internalType": "address payable",
          "name": "_seller",
          "type": "address"
        },
        {
          "internalType": "uint256",
          "name": "_tokenId",
          "type": "uint256"
        }
      ],
      "name": "buyTokenFromSeller",
      "outputs": [],
      "stateMutability": "payable",
      "type": "function"
    },
    {
      "inputs": [
        {
          "internalType": "uint256",
          "name": "_tokenId",
          "type": "uint256"
        }
      ],
      "name": "cancelSellFToken",
      "outputs": [],
      "stateMutability": "nonpayable",
      "type": "function"
    },
    {
      "inputs": [
        {
          "internalType": "uint256",
          "name": "_nfTokenId",
          "type": "uint256"
        }
      ],
      "name": "cancelSellNft",
      "outputs": [],
      "stateMutability": "nonpayable",
      "type": "function"
    },
    {
      "inputs": [],
      "name": "getFTokens",
      "outputs": [
        {
          "components": [
            {
              "internalType": "uint256",
              "name": "tokenId",
              "type": "uint256"
            },
            {
              "internalType": "uint256",
              "name": "timestamp",
              "type": "uint256"
            },
            {
              "internalType": "string",
              "name": "name",
              "type": "string"
            },
            {
              "internalType": "string",
              "name": "symbol",
              "type": "string"
            },
            {
              "internalType": "uint256",
              "name": "supply",
              "type": "uint256"
            },
            {
              "internalType": "uint256",
              "name": "price",
              "type": "uint256"
            },
            {
              "internalType": "uint256",
              "name": "usersOwned",
              "type": "uint256"
            },
            {
              "internalType": "uint256",
              "name": "available",
              "type": "uint256"
            }
          ],
          "internalType": "struct NftExpress.FTMetaData[]",
          "name": "",
          "type": "tuple[]"
        }
      ],
      "stateMutability": "view",
      "type": "function"
    },
    {
      "inputs": [
        {
          "internalType": "uint256",
          "name": "_tokenId",
          "type": "uint256"
        }
      ],
      "name": "getMyBalance",
      "outputs": [
        {
          "internalType": "uint256",
          "name": "",
          "type": "uint256"
        }
      ],
      "stateMutability": "view",
      "type": "function"
    },
    {
      "inputs": [],
      "name": "getMyNFTokens",
      "outputs": [
        {
          "components": [
            {
              "internalType": "address",
              "name": "owner",
              "type": "address"
            },
            {
              "internalType": "uint256",
              "name": "tokenId",
              "type": "uint256"
            },
            {
              "internalType": "uint256",
              "name": "timestamp",
              "type": "uint256"
            },
            {
              "internalType": "string",
              "name": "tokenUri",
              "type": "string"
            },
            {
              "internalType": "uint256",
              "name": "price",
              "type": "uint256"
            },
            {
              "internalType": "bool",
              "name": "isDeleted",
              "type": "bool"
            },
            {
              "internalType": "bool",
              "name": "sell",
              "type": "bool"
            }
          ],
          "internalType": "struct NftExpress.NFTMetaData[]",
          "name": "",
          "type": "tuple[]"
        }
      ],
      "stateMutability": "view",
      "type": "function"
    },
    {
      "inputs": [],
      "name": "getMySellingFts",
      "outputs": [
        {
          "components": [
            {
              "internalType": "uint256",
              "name": "id",
              "type": "uint256"
            },
            {
              "internalType": "address",
              "name": "owner",
              "type": "address"
            },
            {
              "internalType": "string",
              "name": "name",
              "type": "string"
            },
            {
              "internalType": "uint256",
              "name": "tokenId",
              "type": "uint256"
            },
            {
              "internalType": "uint256",
              "name": "amount",
              "type": "uint256"
            },
            {
              "internalType": "bool",
              "name": "sell",
              "type": "bool"
            },
            {
              "internalType": "bool",
              "name": "isBuyer",
              "type": "bool"
            },
            {
              "internalType": "address",
              "name": "buyer",
              "type": "address"
            }
          ],
          "internalType": "struct NftExpress.FToken[]",
          "name": "",
          "type": "tuple[]"
        }
      ],
      "stateMutability": "view",
      "type": "function"
    },
    {
      "inputs": [],
      "name": "getNFTokens",
      "outputs": [
        {
          "components": [
            {
              "internalType": "address",
              "name": "owner",
              "type": "address"
            },
            {
              "internalType": "uint256",
              "name": "tokenId",
              "type": "uint256"
            },
            {
              "internalType": "uint256",
              "name": "timestamp",
              "type": "uint256"
            },
            {
              "internalType": "string",
              "name": "tokenUri",
              "type": "string"
            },
            {
              "internalType": "uint256",
              "name": "price",
              "type": "uint256"
            },
            {
              "internalType": "bool",
              "name": "isDeleted",
              "type": "bool"
            },
            {
              "internalType": "bool",
              "name": "sell",
              "type": "bool"
            }
          ],
          "internalType": "struct NftExpress.NFTMetaData[]",
          "name": "",
          "type": "tuple[]"
        }
      ],
      "stateMutability": "view",
      "type": "function"
    },
    {
      "inputs": [],
      "name": "getSellingFts",
      "outputs": [
        {
          "components": [
            {
              "internalType": "uint256",
              "name": "id",
              "type": "uint256"
            },
            {
              "internalType": "address",
              "name": "owner",
              "type": "address"
            },
            {
              "internalType": "string",
              "name": "name",
              "type": "string"
            },
            {
              "internalType": "uint256",
              "name": "tokenId",
              "type": "uint256"
            },
            {
              "internalType": "uint256",
              "name": "amount",
              "type": "uint256"
            },
            {
              "internalType": "bool",
              "name": "sell",
              "type": "bool"
            },
            {
              "internalType": "bool",
              "name": "isBuyer",
              "type": "bool"
            },
            {
              "internalType": "address",
              "name": "buyer",
              "type": "address"
            }
          ],
          "internalType": "struct NftExpress.FToken[]",
          "name": "",
          "type": "tuple[]"
        }
      ],
      "stateMutability": "view",
      "type": "function"
    },
    {
      "inputs": [],
      "name": "getSellingNFts",
      "outputs": [
        {
          "components": [
            {
              "internalType": "address",
              "name": "owner",
              "type": "address"
            },
            {
              "internalType": "uint256",
              "name": "tokenId",
              "type": "uint256"
            },
            {
              "internalType": "uint256",
              "name": "timestamp",
              "type": "uint256"
            },
            {
              "internalType": "string",
              "name": "tokenUri",
              "type": "string"
            },
            {
              "internalType": "uint256",
              "name": "price",
              "type": "uint256"
            },
            {
              "internalType": "bool",
              "name": "isDeleted",
              "type": "bool"
            },
            {
              "internalType": "bool",
              "name": "sell",
              "type": "bool"
            }
          ],
          "internalType": "struct NftExpress.NFTMetaData[]",
          "name": "",
          "type": "tuple[]"
        }
      ],
      "stateMutability": "view",
      "type": "function"
    },
    {
      "inputs": [
        {
          "internalType": "address",
          "name": "account",
          "type": "address"
        },
        {
          "internalType": "address",
          "name": "operator",
          "type": "address"
        }
      ],
      "name": "isApprovedForAll",
      "outputs": [
        {
          "internalType": "bool",
          "name": "",
          "type": "bool"
        }
      ],
      "stateMutability": "view",
      "type": "function"
    },
    {
      "inputs": [],
      "name": "loginUser",
      "outputs": [
        {
          "internalType": "string",
          "name": "",
          "type": "string"
        }
      ],
      "stateMutability": "view",
      "type": "function"
    },
    {
      "inputs": [
        {
          "internalType": "address",
          "name": "",
          "type": "address"
        }
      ],
      "name": "names",
      "outputs": [
        {
          "internalType": "string",
          "name": "",
          "type": "string"
        }
      ],
      "stateMutability": "view",
      "type": "function"
    },
    {
      "inputs": [
        {
          "internalType": "uint256",
          "name": "",
          "type": "uint256"
        }
      ],
      "name": "nftUri",
      "outputs": [
        {
          "internalType": "string",
          "name": "",
          "type": "string"
        }
      ],
      "stateMutability": "view",
      "type": "function"
    },
    {
      "inputs": [
        {
          "internalType": "address",
          "name": "",
          "type": "address"
        }
      ],
      "name": "register",
      "outputs": [
        {
          "internalType": "bool",
          "name": "",
          "type": "bool"
        }
      ],
      "stateMutability": "view",
      "type": "function"
    },
    {
      "inputs": [
        {
          "internalType": "string",
          "name": "_name",
          "type": "string"
        }
      ],
      "name": "registerUser",
      "outputs": [
        {
          "internalType": "string",
          "name": "",
          "type": "string"
        }
      ],
      "stateMutability": "nonpayable",
      "type": "function"
    },
    {
      "inputs": [
        {
          "internalType": "address",
          "name": "from",
          "type": "address"
        },
        {
          "internalType": "address",
          "name": "to",
          "type": "address"
        },
        {
          "internalType": "uint256[]",
          "name": "ids",
          "type": "uint256[]"
        },
        {
          "internalType": "uint256[]",
          "name": "values",
          "type": "uint256[]"
        },
        {
          "internalType": "bytes",
          "name": "data",
          "type": "bytes"
        }
      ],
      "name": "safeBatchTransferFrom",
      "outputs": [],
      "stateMutability": "nonpayable",
      "type": "function"
    },
    {
      "inputs": [
        {
          "internalType": "address",
          "name": "from",
          "type": "address"
        },
        {
          "internalType": "address",
          "name": "to",
          "type": "address"
        },
        {
          "internalType": "uint256",
          "name": "id",
          "type": "uint256"
        },
        {
          "internalType": "uint256",
          "name": "value",
          "type": "uint256"
        },
        {
          "internalType": "bytes",
          "name": "data",
          "type": "bytes"
        }
      ],
      "name": "safeTransferFrom",
      "outputs": [],
      "stateMutability": "nonpayable",
      "type": "function"
    },
    {
      "inputs": [
        {
          "internalType": "uint256",
          "name": "_tokenId",
          "type": "uint256"
        },
        {
          "internalType": "uint256",
          "name": "_amount",
          "type": "uint256"
        }
      ],
      "name": "sellFToken",
      "outputs": [],
      "stateMutability": "nonpayable",
      "type": "function"
    },
    {
      "inputs": [
        {
          "internalType": "uint256",
          "name": "_nfTokenId",
          "type": "uint256"
        },
        {
          "internalType": "uint256",
          "name": "_price",
          "type": "uint256"
        }
      ],
      "name": "sellMyNft",
      "outputs": [],
      "stateMutability": "nonpayable",
      "type": "function"
    },
    {
      "inputs": [
        {
          "internalType": "address",
          "name": "",
          "type": "address"
        },
        {
          "internalType": "uint256",
          "name": "",
          "type": "uint256"
        }
      ],
      "name": "sellingFTokens",
      "outputs": [
        {
          "internalType": "uint256",
          "name": "id",
          "type": "uint256"
        },
        {
          "internalType": "address",
          "name": "owner",
          "type": "address"
        },
        {
          "internalType": "string",
          "name": "name",
          "type": "string"
        },
        {
          "internalType": "uint256",
          "name": "tokenId",
          "type": "uint256"
        },
        {
          "internalType": "uint256",
          "name": "amount",
          "type": "uint256"
        },
        {
          "internalType": "bool",
          "name": "sell",
          "type": "bool"
        },
        {
          "internalType": "bool",
          "name": "isBuyer",
          "type": "bool"
        },
        {
          "internalType": "address",
          "name": "buyer",
          "type": "address"
        }
      ],
      "stateMutability": "view",
      "type": "function"
    },
    {
      "inputs": [
        {
          "internalType": "uint256",
          "name": "",
          "type": "uint256"
        }
      ],
      "name": "sellingFTokensData",
      "outputs": [
        {
          "internalType": "uint256",
          "name": "id",
          "type": "uint256"
        },
        {
          "internalType": "address",
          "name": "owner",
          "type": "address"
        },
        {
          "internalType": "string",
          "name": "name",
          "type": "string"
        },
        {
          "internalType": "uint256",
          "name": "tokenId",
          "type": "uint256"
        },
        {
          "internalType": "uint256",
          "name": "amount",
          "type": "uint256"
        },
        {
          "internalType": "bool",
          "name": "sell",
          "type": "bool"
        },
        {
          "internalType": "bool",
          "name": "isBuyer",
          "type": "bool"
        },
        {
          "internalType": "address",
          "name": "buyer",
          "type": "address"
        }
      ],
      "stateMutability": "view",
      "type": "function"
    },
    {
      "inputs": [
        {
          "internalType": "address",
          "name": "operator",
          "type": "address"
        },
        {
          "internalType": "bool",
          "name": "approved",
          "type": "bool"
        }
      ],
      "name": "setApprovalForAll",
      "outputs": [],
      "stateMutability": "nonpayable",
      "type": "function"
    },
    {
      "inputs": [
        {
          "internalType": "bytes4",
          "name": "interfaceId",
          "type": "bytes4"
        }
      ],
      "name": "supportsInterface",
      "outputs": [
        {
          "internalType": "bool",
          "name": "",
          "type": "bool"
        }
      ],
      "stateMutability": "view",
      "type": "function"
    },
    {
      "inputs": [
        {
          "internalType": "uint256",
          "name": "",
          "type": "uint256"
        }
      ],
      "name": "uri",
      "outputs": [
        {
          "internalType": "string",
          "name": "",
          "type": "string"
        }
      ],
      "stateMutability": "view",
      "type": "function"
    }
  ],
  "bytecode": "0x60806040523480156200001157600080fd5b506040516200493c3803806200493c8339810160408190526200003491620003c8565b806200004081620003a0565b50600580546001600160a01b03191633179055604080516101008101825260008082524260208084019182528451808601865260098152682834bc32b621b7b4b760b91b818301528486019081528551808701909652600386526250584360e81b868301526060850195909552606460808501819052614e2060a086015260c0850184905260e0850152918052600790915281517f6d5257204ebe7d88fd91ae87941cb2dd9d8062b64ae5a2bd2d28ec40b9fbf6df90815590517f6d5257204ebe7d88fd91ae87941cb2dd9d8062b64ae5a2bd2d28ec40b9fbf6e05591519091907f6d5257204ebe7d88fd91ae87941cb2dd9d8062b64ae5a2bd2d28ec40b9fbf6e1906200014f90826200052c565b50606082015160038201906200016690826200052c565b506080820151816004015560a0820151816005015560c0820151816006015560e08201518160070155905050604051806101000160405280600181526020014281526020016040518060400160405280600881526020016714dd185c911d5cdd60c21b81525081526020016040518060400160405280600381526020016214d51160ea1b815250815260200160c8815260200161271081526020016000815260200160c88152506007600060018152602001908152602001600020600082015181600001556020820151816001015560408201518160020190816200024c91906200052c565b50606082015160038201906200026390826200052c565b506080820151816004015560a0820151816005015560c0820151816006015560e08201518160070155905050604051806101000160405280600281526020014281526020016040518060400160405280600a81526020016910dc9e5cdd185b109a5d60b21b81525081526020016040518060400160405280600381526020016210d09560ea1b81525081526020016032815260200161753081526020016000815260200160328152506007600060028152602001908152602001600020600082015181600001556020820151816001015560408201518160020190816200034b91906200052c565b50606082015160038201906200036290826200052c565b50608082015160048083019190915560a0830151600583015560c0830151600683015560e090920151600790910155600380556000905550620005f8565b6002620003ae82826200052c565b5050565b634e487b7160e01b600052604160045260246000fd5b60006020808385031215620003dc57600080fd5b82516001600160401b0380821115620003f457600080fd5b818501915085601f8301126200040957600080fd5b8151818111156200041e576200041e620003b2565b604051601f8201601f19908116603f01168101908382118183101715620004495762000449620003b2565b8160405282815288868487010111156200046257600080fd5b600093505b8284101562000486578484018601518185018701529285019262000467565b600086848301015280965050505050505092915050565b600181811c90821680620004b257607f821691505b602082108103620004d357634e487b7160e01b600052602260045260246000fd5b50919050565b601f8211156200052757600081815260208120601f850160051c81016020861015620005025750805b601f850160051c820191505b8181101562000523578281556001016200050e565b5050505b505050565b81516001600160401b03811115620005485762000548620003b2565b62000560816200055984546200049d565b84620004d9565b602080601f8311600181146200059857600084156200057f5750858301515b600019600386901b1c1916600185901b17855562000523565b600085815260208120601f198616915b82811015620005c957888601518255948401946001909101908401620005a8565b5085821015620005e85787850151600019600388901b60f8161c191681555b5050505050600190811b01905550565b61433480620006086000396000f3fe6080604052600436106101f85760003560e01c8063704f1b941161010d578063ad673d08116100a0578063dc10ebf01161006f578063dc10ebf0146105d8578063e985e9c5146105f8578063ecf280b314610618578063f242432a14610638578063fd3703b81461065857600080fd5b8063ad673d081461054f578063c715bbfb1461056f578063c88f16b414610584578063d15b6a8c146105b857600080fd5b806384b8d6d6116100dc57806384b8d6d6146104da578063a19ed686146104fa578063a22cb4651461050f578063ab35216a1461052f57600080fd5b8063704f1b94146104705780637984b0e9146104905780637a9ff04c146104a55780637d2b2849146104c557600080fd5b8063310f41041161019057806359f482711161015f57806359f48271146103a75780635cf3d346146103c75780635d2d7619146103e757806361a4cc0e146104095780636e121cdd1461043d57600080fd5b8063310f4104146103175780633a6c232e146103375780634420e4861461034a5780634e1273f41461037a57600080fd5b8063243adbdd116101cc578063243adbdd146102a257806324cc8555146102b557806327748682146102d55780632eb2c2d6146102f757600080fd5b8062fdd58e146101fd57806301ffc9a714610230578063057466ea146102605780630e89341c14610275575b600080fd5b34801561020957600080fd5b5061021d610218366004613751565b61067a565b6040519081526020015b60405180910390f35b34801561023c57600080fd5b5061025061024b366004613793565b6106a2565b6040519015158152602001610227565b61027361026e3660046137b7565b6106f2565b005b34801561028157600080fd5b506102956102903660046137d9565b610aab565b6040516102279190613838565b6102736102b03660046137d9565b610b3f565b3480156102c157600080fd5b5061021d6102d03660046137d9565b610d9b565b3480156102e157600080fd5b506102ea610e2a565b604051610227919061384b565b34801561030357600080fd5b50610273610312366004613a5a565b6110d5565b34801561032357600080fd5b506102736103323660046137b7565b611134565b610273610345366004613751565b6111ed565b34801561035657600080fd5b50610250610365366004613b07565b600a6020526000908152604090205460ff1681565b34801561038657600080fd5b5061039a610395366004613b24565b611514565b6040516102279190613c20565b3480156103b357600080fd5b506102736103c23660046137d9565b6115e8565b3480156103d357600080fd5b506102956103e2366004613b07565b61168b565b3480156103f357600080fd5b506103fc611725565b6040516102279190613c33565b34801561041557600080fd5b506104296104243660046137d9565b6118c7565b604051610227989796959493929190613cdf565b34801561044957600080fd5b5061045d610458366004613751565b6119ad565b6040516102279796959493929190613d3d565b34801561047c57600080fd5b5061029561048b366004613d8b565b611aa2565b34801561049c57600080fd5b506102ea611b3d565b3480156104b157600080fd5b5061045d6104c03660046137d9565b611d55565b3480156104d157600080fd5b506103fc611d8f565b3480156104e657600080fd5b506102736104f5366004613dd7565b611fa2565b34801561050657600080fd5b50610295612268565b34801561051b57600080fd5b5061027361052a366004613e03565b612367565b34801561053b57600080fd5b5061027361054a3660046137b7565b612376565b34801561055b57600080fd5b5061027361056a3660046137d9565b6126dc565b34801561057b57600080fd5b506103fc612797565b34801561059057600080fd5b506105a461059f3660046137d9565b6129a8565b604051610227989796959493929190613e2f565b3480156105c457600080fd5b506102736105d3366004613e8b565b612af9565b3480156105e457600080fd5b506102956105f33660046137d9565b612cfd565b34801561060457600080fd5b50610250610613366004613ecf565b612d16565b34801561062457600080fd5b50610429610633366004613751565b612d44565b34801561064457600080fd5b50610273610653366004613f08565b612d81565b34801561066457600080fd5b5061066d612de0565b6040516102279190613f70565b6000818152602081815260408083206001600160a01b03861684529091529020545b92915050565b60006001600160e01b03198216636cdb3d1360e11b14806106d357506001600160e01b031982166303a24d0760e21b145b8061069c57506301ffc9a760e01b6001600160e01b031983161461069c565b336000908152600a602052604090205460ff166107565760405162461bcd60e51b815260206004820152601b60248201527f557365722068617320746f20726567697374657220666972737421000000000060448201526064015b60405180910390fd5b81600354116107775760405162461bcd60e51b815260040161074d90614027565b6000600760008481526020019081526020016000206040518061010001604052908160008201548152602001600182015481526020016002820180546107bc90614055565b80601f01602080910402602001604051908101604052809291908181526020018280546107e890614055565b80156108355780601f1061080a57610100808354040283529160200191610835565b820191906000526020600020905b81548152906001019060200180831161081857829003601f168201915b5050505050815260200160038201805461084e90614055565b80601f016020809104026020016040519081016040528092919081815260200182805461087a90614055565b80156108c75780601f1061089c576101008083540402835291602001916108c7565b820191906000526020600020905b8154815290600101906020018083116108aa57829003601f168201915b505050505081526020016004820154815260200160058201548152602001600682015481526020016007820154815250509050818160e00151101561094e5760405162461bcd60e51b815260206004820152601b60248201527f496e73756666696369656e7420746f6b656e2062616c616e6365210000000000604482015260640161074d565b6000828260a00151610960919061409f565b9050348111156109b25760405162461bcd60e51b815260206004820152601f60248201527f4e6f7420656e6f756768206d6f6e657920746f2062757920746f6b656e732100604482015260640161074d565b600084815260076020819052604082200180548592906109d39084906140b6565b9091555050600084815260076020526040812060060180548592906109f99084906140c9565b9091555050604051600090309083908381818185875af1925050503d8060008114610a40576040519150601f19603f3d011682016040523d82523d6000602084013e610a45565b606091505b50509050610a6433868660405180602001604052806000815250613036565b81341115610aa457336108fc610a7a84346140b6565b6040518115909202916000818181858888f19350505050158015610aa2573d6000803e3d6000fd5b505b5050505050565b606060028054610aba90614055565b80601f0160208091040260200160405190810160405280929190818152602001828054610ae690614055565b8015610b335780601f10610b0857610100808354040283529160200191610b33565b820191906000526020600020905b815481529060010190602001808311610b1657829003601f168201915b50505050509050919050565b6004548110610b605760405162461bcd60e51b815260040161074d90614027565b6000818152600860209081526040808320815160e08101835281546001600160a01b03168152600182015493810193909352600281015491830191909152600381018054606084019190610bb390614055565b80601f0160208091040260200160405190810160405280929190818152602001828054610bdf90614055565b8015610c2c5780601f10610c0157610100808354040283529160200191610c2c565b820191906000526020600020905b815481529060010190602001808311610c0f57829003601f168201915b50505091835250506004820154602082015260059091015460ff808216151560408401526101009091041615156060909101526080810151909150341015610cc75760405162461bcd60e51b815260206004820152602860248201527f596f7520646f6e2774206861766520656e6f756768206d6f6e657920746f2070604482015267757263686173652160c01b606482015260840161074d565b805160808201516040516000926001600160a01b031691908381818185875af1925050503d8060008114610d17576040519150601f19603f3d011682016040523d82523d6000602084013e610d1c565b606091505b5050600084815260086020526040902080546001600160a01b03191633178155600501805461ff00191690556080830151909150341115610d9657608082015133906108fc90610d6c90346140b6565b6040518115909202916000818181858888f19350505050158015610d94573d6000803e3d6000fd5b505b505050565b336000908152600a602052604081205460ff16610dfa5760405162461bcd60e51b815260206004820152601b60248201527f557365722068617320746f207265676973746572206669727374210000000000604482015260640161074d565b8160035411610e1b5760405162461bcd60e51b815260040161074d90614027565b61069c338361067a565b919050565b60606000805b600654811015610eb9576000818152600c60205260409020600101546001600160a01b031633148015610e9457506000818152600c602052604090206005015460ff1680610e9457506000818152600c6020526040902060050154610100900460ff165b15610ea75781610ea3816140dc565b9250505b80610eb1816140dc565b915050610e30565b506000816001600160401b03811115610ed457610ed4613917565b604051908082528060200260200182016040528015610f0d57816020015b610efa613694565b815260200190600190039081610ef25790505b5090506000805b6006548110156110cc576000818152600c60205260409020600101546001600160a01b031633148015610f7857506000818152600c602052604090206005015460ff1680610f7857506000818152600c6020526040902060050154610100900460ff165b156110ba576000818152600c60209081526040918290208251610100810184528154815260018201546001600160a01b0316928101929092526002810180549293919291840191610fc890614055565b80601f0160208091040260200160405190810160405280929190818152602001828054610ff490614055565b80156110415780601f1061101657610100808354040283529160200191611041565b820191906000526020600020905b81548152906001019060200180831161102457829003601f168201915b5050509183525050600382015460208201526004820154604082015260059091015460ff80821615156060840152610100820416151560808301526201000090046001600160a01b031660a090910152838361109c816140dc565b9450815181106110ae576110ae6140f5565b60200260200101819052505b806110c4816140dc565b915050610f14565b50909392505050565b336001600160a01b03861681148015906110f657506110f48682612d16565b155b156111275760405163711bec9160e11b81526001600160a01b0380831660048301528716602482015260440161074d565b610aa28686868686613093565b60045482106111555760405162461bcd60e51b815260040161074d90614027565b6000828152600860205260409020546001600160a01b031633146111c75760405162461bcd60e51b8152602060048201526024808201527f596f7520617265206e6f7420746865206f776e6572206f66207468697320746f6044820152636b656e2160e01b606482015260840161074d565b60009182526008602052604090912060058101805461ff00191661010017905560040155565b6001600160a01b038083166000908152600b602090815260408083208584528252808320815161010081018352815481526001820154909516928501929092526002820180549394939184019161124390614055565b80601f016020809104026020016040519081016040528092919081815260200182805461126f90614055565b80156112bc5780601f10611291576101008083540402835291602001916112bc565b820191906000526020600020905b81548152906001019060200180831161129f57829003601f168201915b5050509183525050600382015460208201526004820154604082015260059091015460ff80821615156060840152610100820416151560808301526201000090046001600160a01b031660a09182015281015190915061136c5760405162461bcd60e51b815260206004820152602560248201527f5468652073656c6c6572206973206e6f742073656c6c696e67207468697320746044820152646f6b656e2160d81b606482015260840161074d565b6080810151606082015160009081526007602052604081206005015490916113939161409f565b9050348111156113e55760405162461bcd60e51b815260206004820152601f60248201527f496e73756666696369656e742065746820746f2062757920746f6b656e732100604482015260640161074d565b604051600090309083908381818185875af1925050503d8060008114611427576040519150601f19603f3d011682016040523d82523d6000602084013e61142c565b606091505b50506001600160a01b0386166000908152600b60209081526040808320888452909152812060050180546101006001600160b01b0319909116336201000002171790559091505b6006548110156114fd576000818152600c60205260409020600101546001600160a01b0387811691161480156114b957506000818152600c602052604090206003015485145b156114eb576000818152600c6020526040902060050180546201000033026001600160b01b0319909116176101001790555b806114f5816140dc565b915050611473565b5081341115610aa457336108fc610a7a84346140b6565b606081518351146115455781518351604051635b05999160e01b81526004810192909252602482015260440161074d565b600083516001600160401b0381111561156057611560613917565b604051908082528060200260200182016040528015611589578160200160208202803683370190505b50905060005b84518110156115e0576020808202860101516115b39060208084028701015161067a565b8282815181106115c5576115c56140f5565b60209081029190910101526115d9816140dc565b905061158f565b509392505050565b60045481106116095760405162461bcd60e51b815260040161074d90614027565b6000818152600860205260409020546001600160a01b0316331461166f5760405162461bcd60e51b815260206004820152601860248201527f596f7520646f6e277420686176652073756368204e4654210000000000000000604482015260640161074d565b6000908152600860205260409020600501805461ff0019169055565b600960205260009081526040902080546116a490614055565b80601f01602080910402602001604051908101604052809291908181526020018280546116d090614055565b801561171d5780601f106116f25761010080835404028352916020019161171d565b820191906000526020600020905b81548152906001019060200180831161170057829003601f168201915b505050505081565b606060006004546001600160401b0381111561174357611743613917565b60405190808252806020026020018201604052801561177c57816020015b6117696136ef565b8152602001906001900390816117615790505b50905060005b6004548110156118c157600081815260086020908152604091829020825160e08101845281546001600160a01b031681526001820154928101929092526002810154928201929092526003820180549192916060840191906117e390614055565b80601f016020809104026020016040519081016040528092919081815260200182805461180f90614055565b801561185c5780601f106118315761010080835404028352916020019161185c565b820191906000526020600020905b81548152906001019060200180831161183f57829003601f168201915b50505091835250506004820154602082015260059091015460ff8082161515604084015261010090910416151560609091015282518390839081106118a3576118a36140f5565b602002602001018190525080806118b9906140dc565b915050611782565b50919050565b600c6020526000908152604090208054600182015460028301805492936001600160a01b03909216926118f990614055565b80601f016020809104026020016040519081016040528092919081815260200182805461192590614055565b80156119725780601f1061194757610100808354040283529160200191611972565b820191906000526020600020905b81548152906001019060200180831161195557829003601f168201915b505050600384015460048501546005909501549394909390925060ff8082169250610100820416906001600160a01b03620100009091041688565b600d60205281600052604060002081815481106119c957600080fd5b600091825260209091206006909102018054600182015460028301546003840180546001600160a01b0390941696509194509291611a0690614055565b80601f0160208091040260200160405190810160405280929190818152602001828054611a3290614055565b8015611a7f5780601f10611a5457610100808354040283529160200191611a7f565b820191906000526020600020905b815481529060010190602001808311611a6257829003601f168201915b50505050600483015460059093015491929160ff80821692506101009091041687565b336000908152600a602052604090205460609060ff1615611b055760405162461bcd60e51b815260206004820152601c60248201527f5573657220616c72656164792068617320616e206163636f756e742100000000604482015260640161074d565b336000908152600960205260409020611b1e8382614151565b5050336000908152600a60205260409020805460ff1916600117905590565b60606000805b600654811015611b87576000818152600c602052604090206005015460ff1615611b755781611b71816140dc565b9250505b80611b7f816140dc565b915050611b43565b506000816001600160401b03811115611ba257611ba2613917565b604051908082528060200260200182016040528015611bdb57816020015b611bc8613694565b815260200190600190039081611bc05790505b5090506000805b6006548110156110cc576000818152600c602052604090206005015460ff1615611d43576000818152600c60209081526040918290208251610100810184528154815260018201546001600160a01b0316928101929092526002810180549293919291840191611c5190614055565b80601f0160208091040260200160405190810160405280929190818152602001828054611c7d90614055565b8015611cca5780601f10611c9f57610100808354040283529160200191611cca565b820191906000526020600020905b815481529060010190602001808311611cad57829003601f168201915b5050509183525050600382015460208201526004820154604082015260059091015460ff80821615156060840152610100820416151560808301526201000090046001600160a01b031660a0909101528383611d25816140dc565b945081518110611d3757611d376140f5565b60200260200101819052505b80611d4d816140dc565b915050611be2565b60086020526000908152604090208054600182015460028301546003840180546001600160a01b03909416949293919291611a0690614055565b60606000805b600454811015611ddf57600081815260086020526040902054336001600160a01b0390911603611dcd5781611dc9816140dc565b9250505b80611dd7816140dc565b915050611d95565b506000816001600160401b03811115611dfa57611dfa613917565b604051908082528060200260200182016040528015611e3357816020015b611e206136ef565b815260200190600190039081611e185790505b5090506000805b6004548110156110cc57600081815260086020526040902054336001600160a01b0390911603611f9057600081815260086020908152604091829020825160e08101845281546001600160a01b03168152600182015492810192909252600281015492820192909252600382018054919291606084019190611ebb90614055565b80601f0160208091040260200160405190810160405280929190818152602001828054611ee790614055565b8015611f345780601f10611f0957610100808354040283529160200191611f34565b820191906000526020600020905b815481529060010190602001808311611f1757829003601f168201915b50505091835250506004820154602082015260059091015460ff808216151560408401526101009091041615156060909101528383611f72816140dc565b945081518110611f8457611f846140f5565b60200260200101819052505b80611f9a816140dc565b915050611e3a565b6000828152600c602090815260408083208151610100810183528154815260018201546001600160a01b0316938101939093526002810180549192840191611fe990614055565b80601f016020809104026020016040519081016040528092919081815260200182805461201590614055565b80156120625780601f1061203757610100808354040283529160200191612062565b820191906000526020600020905b81548152906001019060200180831161204557829003601f168201915b505050918352505060038201546020808301919091526004830154604083015260059092015460ff80821615156060840152610100820416151560808301526001600160a01b0362010000909104811660a0909201919091529082015191925016331461210a5760405162461bcd60e51b8152602060048201526016602482015275596f7520617265206e6f7420746865206f776e65722160501b604482015260640161074d565b336001600160a01b03168160e001516001600160a01b03160361215b5760405162461bcd60e51b81526020600482015260096024820152686e6f2062757965722160b81b604482015260640161074d565b6000838152600c602090815260408083206005908101805461ffff1916905533808552600b80855283862060608801805188528187528588208501805460ff191690559287529085529051855290925290912001805461ff00191690558115612212576121e6338260e001518360600151846080015160405180602001604052806000815250612d81565b6060810151600090815260076020526040902060050154608082015133916108fc91610d6c919061409f565b336000908152600b602090815260408083206060850180518552908352818420600590810154915185526007909352922001546080830151620100009092046001600160a01b0316916108fc91610d6c9161409f565b336000908152600a602052604090205460609060ff166122ca5760405162461bcd60e51b815260206004820152601d60248201527f5573657220646f65736e2774206861766520616e206163636f756e7421000000604482015260640161074d565b33600090815260096020526040902080546122e490614055565b80601f016020809104026020016040519081016040528092919081815260200182805461231090614055565b801561235d5780601f106123325761010080835404028352916020019161235d565b820191906000526020600020905b81548152906001019060200180831161234057829003601f168201915b5050505050905090565b6123723383836130f3565b5050565b60035482106123975760405162461bcd60e51b815260040161074d90614027565b806123a2338461067a565b10156123f05760405162461bcd60e51b815260206004820152601b60248201527f496e73756666696369656e7420746f6b656e2062616c616e6365210000000000604482015260640161074d565b336000908152600b6020908152604080832085845290915290206005015460ff16156124695760405162461bcd60e51b815260206004820152602260248201527f596f752061726520616c72656164792073656c6c696e67207468697320746f6b60448201526132b760f11b606482015260840161074d565b604080516101008101825260065481523360208083018290526000918252600990528281208054919383019161249e90614055565b80601f01602080910402602001604051908101604052809291908181526020018280546124ca90614055565b80156125175780601f106124ec57610100808354040283529160200191612517565b820191906000526020600020905b8154815290600101906020018083116124fa57829003601f168201915b5050509183525050602080820186905260408083018690526001606084018190526000608085018190523360a0909501859052938452600b8352818420888552835292819020845181559184015192820180546001600160a01b0319166001600160a01b0390941693909317909255908201519192508291600282019061259e9082614151565b50606082015160038201556080820151600482015560a08201516005909101805460c084015160e09094015161ffff1990911692151561ff00191692909217610100931515939093029290921762010000600160b01b031916620100006001600160a01b0392831602179091556006546000908152600c602090815260409182902084518155908401516001820180546001600160a01b031916919094161790925582015182919060028201906126559082614151565b50606082015160038201556080820151600482015560a08201516005909101805460c084015160e0909401516001600160a01b0316620100000262010000600160b01b03199415156101000261ff00199415159490941661ffff19909216919091179290921792909216179055600680549060006126d2836140dc565b9190505550505050565b60035481106126fd5760405162461bcd60e51b815260040161074d90614027565b336000908152600b602090815260408083208484529091528120600501805460ff191690555b600654811015612372576000818152600c60205260409020600101546001600160a01b03163314801561276657506000818152600c602052604090206003015482145b15612785576000818152600c60205260409020600501805460ff191690555b8061278f816140dc565b915050612723565b60606000805b6004548110156127e657600081815260086020526040902060050154610100900460ff16156127d457816127d0816140dc565b9250505b806127de816140dc565b91505061279d565b506000816001600160401b0381111561280157612801613917565b60405190808252806020026020018201604052801561283a57816020015b6128276136ef565b81526020019060019003908161281f5790505b5090506000805b6004548110156110cc57600081815260086020526040902060050154610100900460ff161561299657600081815260086020908152604091829020825160e08101845281546001600160a01b031681526001820154928101929092526002810154928201929092526003820180549192916060840191906128c190614055565b80601f01602080910402602001604051908101604052809291908181526020018280546128ed90614055565b801561293a5780601f1061290f5761010080835404028352916020019161293a565b820191906000526020600020905b81548152906001019060200180831161291d57829003601f168201915b50505091835250506004820154602082015260059091015460ff808216151560408401526101009091041615156060909101528383612978816140dc565b94508151811061298a5761298a6140f5565b60200260200101819052505b806129a0816140dc565b915050612841565b600760205260009081526040902080546001820154600283018054929391926129d090614055565b80601f01602080910402602001604051908101604052809291908181526020018280546129fc90614055565b8015612a495780601f10612a1e57610100808354040283529160200191612a49565b820191906000526020600020905b815481529060010190602001808311612a2c57829003601f168201915b505050505090806003018054612a5e90614055565b80601f0160208091040260200160405190810160405280929190818152602001828054612a8a90614055565b8015612ad75780601f10612aac57610100808354040283529160200191612ad7565b820191906000526020600020905b815481529060010190602001808311612aba57829003601f168201915b5050505050908060040154908060050154908060060154908060070154905088565b80600003612b3d5760405162461bcd60e51b8152602060048201526011602482015270050726963652063616e6e6f74206265203607c1b604482015260640161074d565b6040805160e0810182523381526004546020808301828152428486019081526060850188815260808601889052600060a0870181905260c08701819052948552600890935294909220835181546001600160a01b0319166001600160a01b03909116178155915160018301559251600282015591519091906003820190612bc49082614151565b5060808281015160048084019190915560a0808501516005909401805460c09687015115156101000261ff00199615159690961661ffff199091161794909417909355336000818152600d60209081526040808320815160e081018352948552945484830190815242918501918252606085018b81529685018a90529684018390529683018290528354600181810186559483529120825160069092020180546001600160a01b03929092166001600160a01b031990921691909117815593519184019190915592516002830155516003820190612ca29082614151565b50608082015160048083019190915560a08301516005909201805460c09094015115156101000261ff00199315159390931661ffff1990941693909317919091179091558054906000612cf4836140dc565b91905055505050565b600e60205260009081526040902080546116a490614055565b6001600160a01b03918216600090815260016020908152604080832093909416825291909152205460ff1690565b600b60209081526000928352604080842090915290825290208054600182015460028301805492936001600160a01b03909216926118f990614055565b336001600160a01b0386168114801590612da25750612da08682612d16565b155b15612dd35760405163711bec9160e11b81526001600160a01b0380831660048301528716602482015260440161074d565b610aa28686868686613189565b606060006003546001600160401b03811115612dfe57612dfe613917565b604051908082528060200260200182016040528015612e7757816020015b612e6460405180610100016040528060008152602001600081526020016060815260200160608152602001600081526020016000815260200160008152602001600081525090565b815260200190600190039081612e1c5790505b50905060005b6003548110156118c15760076000828152602001908152602001600020604051806101000160405290816000820154815260200160018201548152602001600282018054612eca90614055565b80601f0160208091040260200160405190810160405280929190818152602001828054612ef690614055565b8015612f435780601f10612f1857610100808354040283529160200191612f43565b820191906000526020600020905b815481529060010190602001808311612f2657829003601f168201915b50505050508152602001600382018054612f5c90614055565b80601f0160208091040260200160405190810160405280929190818152602001828054612f8890614055565b8015612fd55780601f10612faa57610100808354040283529160200191612fd5565b820191906000526020600020905b815481529060010190602001808311612fb857829003601f168201915b50505050508152602001600482015481526020016005820154815260200160068201548152602001600782015481525050828281518110613018576130186140f5565b6020026020010181905250808061302e906140dc565b915050612e7d565b6001600160a01b03841661306057604051632bfa23e760e11b81526000600482015260240161074d565b60408051600180825260208201869052818301908152606082018590526080820190925290610aa2600087848487613217565b6001600160a01b0384166130bd57604051632bfa23e760e11b81526000600482015260240161074d565b6001600160a01b0385166130e657604051626a0d4560e21b81526000600482015260240161074d565b610aa48585858585613217565b6001600160a01b03821661311c5760405162ced3e160e81b81526000600482015260240161074d565b6001600160a01b03838116600081815260016020908152604080832094871680845294825291829020805460ff191686151590811790915591519182527f17307eab39ab6107e8899845ad3d59bd9653f200f220920489ca2b5937696c31910160405180910390a3505050565b6001600160a01b0384166131b357604051632bfa23e760e11b81526000600482015260240161074d565b6001600160a01b0385166131dc57604051626a0d4560e21b81526000600482015260240161074d565b6040805160018082526020820186905281830190815260608201859052608082019092529061320e8787848487613217565b50505050505050565b6132238585858561326a565b6001600160a01b03841615610aa4578251339060010361325c5760208481015190840151613255838989858589613487565b5050610aa2565b610aa28187878787876135ab565b80518251146132995781518151604051635b05999160e01b81526004810192909252602482015260440161074d565b3360005b83518110156133a8576020818102858101820151908501909101516001600160a01b03881615613350576000828152602081815260408083206001600160a01b038c16845290915290205481811015613329576040516303dee4c560e01b81526001600160a01b038a16600482015260248101829052604481018390526064810184905260840161074d565b6000838152602081815260408083206001600160a01b038d16845290915290209082900390555b6001600160a01b03871615613395576000828152602081815260408083206001600160a01b038b1684529091528120805483929061338f9084906140c9565b90915550505b5050806133a1906140dc565b905061329d565b5082516001036134295760208301516000906020840151909150856001600160a01b0316876001600160a01b0316846001600160a01b03167fc3d58168c5ae7397731d063d5bbf3d657854427343f4c083240f7aacaa2d0f62858560405161341a929190918252602082015260400190565b60405180910390a45050610aa4565b836001600160a01b0316856001600160a01b0316826001600160a01b03167f4a39dc06d4c0dbc64b70af90fd698a233a518aa5d07e595d983b8c0526c8f7fb8686604051613478929190614210565b60405180910390a45050505050565b6001600160a01b0384163b15610aa25760405163f23a6e6160e01b81526001600160a01b0385169063f23a6e61906134cb908990899088908890889060040161423e565b6020604051808303816000875af1925050508015613506575060408051601f3d908101601f1916820190925261350391810190614283565b60015b61356f573d808015613534576040519150601f19603f3d011682016040523d82523d6000602084013e613539565b606091505b50805160000361356757604051632bfa23e760e11b81526001600160a01b038616600482015260240161074d565b805181602001fd5b6001600160e01b0319811663f23a6e6160e01b1461320e57604051632bfa23e760e11b81526001600160a01b038616600482015260240161074d565b6001600160a01b0384163b15610aa25760405163bc197c8160e01b81526001600160a01b0385169063bc197c81906135ef90899089908890889088906004016142a0565b6020604051808303816000875af192505050801561362a575060408051601f3d908101601f1916820190925261362791810190614283565b60015b613658573d808015613534576040519150601f19603f3d011682016040523d82523d6000602084013e613539565b6001600160e01b0319811663bc197c8160e01b1461320e57604051632bfa23e760e11b81526001600160a01b038616600482015260240161074d565b6040518061010001604052806000815260200160006001600160a01b0316815260200160608152602001600081526020016000815260200160001515815260200160001515815260200160006001600160a01b031681525090565b6040518060e0016040528060006001600160a01b03168152602001600081526020016000815260200160608152602001600081526020016000151581526020016000151581525090565b6001600160a01b038116811461374e57600080fd5b50565b6000806040838503121561376457600080fd5b823561376f81613739565b946020939093013593505050565b6001600160e01b03198116811461374e57600080fd5b6000602082840312156137a557600080fd5b81356137b08161377d565b9392505050565b600080604083850312156137ca57600080fd5b50508035926020909101359150565b6000602082840312156137eb57600080fd5b5035919050565b6000815180845260005b81811015613818576020818501810151868301820152016137fc565b506000602082860101526020601f19601f83011685010191505092915050565b6020815260006137b060208301846137f2565b60006020808301818452808551808352604092508286019150828160051b87010184880160005b8381101561390957888303603f19018552815180518452878101516001600160a01b03168885015286810151610100888601819052906138b4828701826137f2565b606084810151908801526080808501519088015260a08085015115159088015260c08085015115159088015260e0938401516001600160a01b0316939096019290925250509386019390860190600101613872565b509098975050505050505050565b634e487b7160e01b600052604160045260246000fd5b604051601f8201601f191681016001600160401b038111828210171561395557613955613917565b604052919050565b60006001600160401b0382111561397657613976613917565b5060051b60200190565b600082601f83011261399157600080fd5b813560206139a66139a18361395d565b61392d565b82815260059290921b840181019181810190868411156139c557600080fd5b8286015b848110156139e057803583529183019183016139c9565b509695505050505050565b600082601f8301126139fc57600080fd5b81356001600160401b03811115613a1557613a15613917565b613a28601f8201601f191660200161392d565b818152846020838601011115613a3d57600080fd5b816020850160208301376000918101602001919091529392505050565b600080600080600060a08688031215613a7257600080fd5b8535613a7d81613739565b94506020860135613a8d81613739565b935060408601356001600160401b0380821115613aa957600080fd5b613ab589838a01613980565b94506060880135915080821115613acb57600080fd5b613ad789838a01613980565b93506080880135915080821115613aed57600080fd5b50613afa888289016139eb565b9150509295509295909350565b600060208284031215613b1957600080fd5b81356137b081613739565b60008060408385031215613b3757600080fd5b82356001600160401b0380821115613b4e57600080fd5b818501915085601f830112613b6257600080fd5b81356020613b726139a18361395d565b82815260059290921b84018101918181019089841115613b9157600080fd5b948201945b83861015613bb8578535613ba981613739565b82529482019490820190613b96565b96505086013592505080821115613bce57600080fd5b50613bdb85828601613980565b9150509250929050565b600081518084526020808501945080840160005b83811015613c1557815187529582019590820190600101613bf9565b509495945050505050565b6020815260006137b06020830184613be5565b60006020808301818452808551808352604092508286019150828160051b87010184880160005b8381101561390957888303603f19018552815180516001600160a01b031684528781015188850152868101518785015260608082015160e08287018190529190613ca6838801826137f2565b6080858101519089015260a08086015115159089015260c094850151151594909701939093525050509386019390860190600101613c5a565b8881526001600160a01b03888116602083015261010060408301819052600091613d0b8483018b6137f2565b60608501999099526080840197909752505092151560a084015290151560c083015290911660e0909101529392505050565b60018060a01b038816815286602082015285604082015260e060608201526000613d6a60e08301876137f2565b60808301959095525091151560a0830152151560c090910152949350505050565b600060208284031215613d9d57600080fd5b81356001600160401b03811115613db357600080fd5b613dbf848285016139eb565b949350505050565b80358015158114610e2557600080fd5b60008060408385031215613dea57600080fd5b82359150613dfa60208401613dc7565b90509250929050565b60008060408385031215613e1657600080fd5b8235613e2181613739565b9150613dfa60208401613dc7565b60006101008a8352896020840152806040840152613e4f8184018a6137f2565b90508281036060840152613e6381896137f2565b9150508560808301528460a08301528360c08301528260e08301529998505050505050505050565b60008060408385031215613e9e57600080fd5b82356001600160401b03811115613eb457600080fd5b613ec0858286016139eb565b95602094909401359450505050565b60008060408385031215613ee257600080fd5b8235613eed81613739565b91506020830135613efd81613739565b809150509250929050565b600080600080600060a08688031215613f2057600080fd5b8535613f2b81613739565b94506020860135613f3b81613739565b9350604086013592506060860135915060808601356001600160401b03811115613f6457600080fd5b613afa888289016139eb565b60006020808301818452808551808352604092508286019150828160051b87010184880160005b8381101561390957603f198984030185528151610100815185528882015189860152878201518189870152613fce828701826137f2565b91505060608083015186830382880152613fe883826137f2565b6080858101519089015260a0808601519089015260c0808601519089015260e09485015194909701939093525050509386019390860190600101613f97565b6020808252601490820152734e6f207375636820746f6b656e2065786973742160601b604082015260600190565b600181811c9082168061406957607f821691505b6020821081036118c157634e487b7160e01b600052602260045260246000fd5b634e487b7160e01b600052601160045260246000fd5b808202811582820484141761069c5761069c614089565b8181038181111561069c5761069c614089565b8082018082111561069c5761069c614089565b6000600182016140ee576140ee614089565b5060010190565b634e487b7160e01b600052603260045260246000fd5b601f821115610d9657600081815260208120601f850160051c810160208610156141325750805b601f850160051c820191505b81811015610aa25782815560010161413e565b81516001600160401b0381111561416a5761416a613917565b61417e816141788454614055565b8461410b565b602080601f8311600181146141b3576000841561419b5750858301515b600019600386901b1c1916600185901b178555610aa2565b600085815260208120601f198616915b828110156141e2578886015182559484019460019091019084016141c3565b50858210156142005787850151600019600388901b60f8161c191681555b5050505050600190811b01905550565b6040815260006142236040830185613be5565b82810360208401526142358185613be5565b95945050505050565b6001600160a01b03868116825285166020820152604081018490526060810183905260a060808201819052600090614278908301846137f2565b979650505050505050565b60006020828403121561429557600080fd5b81516137b08161377d565b6001600160a01b0386811682528516602082015260a0604082018190526000906142cc90830186613be5565b82810360608401526142de8186613be5565b905082810360808401526142f281856137f2565b9897505050505050505056fea2646970667358221220587ba5c4c573cd48548f4663a6532d21e4ad6e6a28d7c1214930325e9a5e7c0064736f6c63430008150033",
  "linkReferences": {},
  "deployedLinkReferences": {}
}